:100000000C9434000C943E000C943E000C94400080
:100010000C943E000C943E000C943E000C943E0068
:100020000C943E000C943E000C943E000C943E0058
:100030000C943E000C943E000C943E000C943E0048
:100040000C943E000C943E000C943E000C943E0038
:100050000C943E000C943E000C943E000C943E0028
:100060000C943E000C943E0011241FBECFEFD8E04C
:10007000DEBFCDBF0E944F000C94E5000C94000041
:100080001F920F920FB60F921124189B02C029984D
:1000900001C0299A0F900FBE0F901F9018958EE205
:1000A00084B985E085B983E58CBD8DB581608DBD52
:1000B00017B818B880E18AB91BB8809168008160D0
:1000C0008093680080916B00816080936B007894CE
:1000D00050E16FEF70EDEFE3F3E5A0E54D9B03C05A
:1000E0004D99FECF02C04D9BFECF4F9905C04E9B50
:1000F00051C086B190E021C036B129B1832F26FDD1
:1001000014C08F7190E0982F882725FF03C04D9968
:10011000FECF02C04D9BFECF29B146B1B22FB07CBD
:100120004B2B842B35FD09C038C08E73B9F630FFD8
:1001300002C0ACBDD3CFFCBDD1CF6EBD29B1322F33
:10014000307C30613BB97AB9382F3F7338B9E7B9A1
:100150000DB407FEFDCF4EB5342F307C306125FF46
:1001600003C04D99FECF02C04D9BFECF3BB948B9AD
:1001700029B1009719F001976EBDEACF25FF03C0A2
:100180004D99FECF02C04D9BFECF5AB917B81BB890
:1001900018B8A4CF86B190E029B15BB925FF03C0A0
:1001A0004D99FECF02C04D9BFECF29B136B1422FF3
:1001B000407C342B3EBD0DB407FEFDCF3EB500970D
:0E01C00011F00197EBCF1BB889CFF894FFCF59
:00000001FF
